:020000040000FA
:0400000020EF00F0FD
:06000800248247EF09F01D
:100018002480D8CF01F0E8CF02F0E0CF03F0F2A4BB
:1000280003D02FEC09F0FBD703C0E0FF02C0E8FFC4
:0C00380001C0D8FF24901000E8EF08F091
:10100000008054455354494E4721003332280C0187
:03101000060000D7
:10101400000E056ED00E046ECA0EE82EFED7042E06
:10102400FCD78A9834D0000E8A6E8A8A0B0E052467
:10103400F66EF76A100EF7220800F550F00B066EF4
:1010440006380F0B066E065081108A6E8A9A340E8B
:10105400046EF20EE82EFED7042EFCD7000E8A6E24
:101064008A8A0B0E0524F66EF76A100EF722080022
:10107400F5500F0B066E065081108A6E8A9A340E54
:10108400046EF20EE82EFED7042EFCD7052A0B0EB2
:101094000524F66EF76A100EF7220800F5500009D1
:1010A400D8A4C1D78A8812000F0E956E000E8C6EDC
:1010B400930E946E000E8B6E9398939AC00E936E5B
:1010C400000E8A6E0AEC08F0010E0C6E100E0D6E06
:1010D4001EEC09F08C8A0B0E196E260E186E5E0E2D
:1010E400E82EFED7182EFCD7192EFAD78C9A8C8CA2
:1010F4000B0E196E260E186E5E0EE82EFED7182EF5
:10110400FCD7192EFAD78C9C8C8E0B0E196E260EDA
:10111400186E5E0EE82EFED7182EFCD7192EFAD7BD
:101124008C9E050ED56E8C0ED66EE70ED76ED08EC5
:10113400F194F28AF28CF28ED58E1200000E076EB4
:101144003BD08A9A8150C00B8A6E0750D8A402D033
:101154008A9801D08A888A8A07500424D96E000E9E
:101164000520DA6EDF50F00B066E06380F0B066EA4
:10117400065081108A6E8A9A420EE82EFED700D05D
:101184008150C00B8A6E0750D8A402D08A9801D02F
:101194008A888A8A07500424D96E000E0520DA6EE4
:1011A400DF500F0B066E065081108A6E8A9A420E2B
:1011B400E82EFED700D0072A07500424D96E000E6B
:1011C4000520DA6EDF50D8B41200BBD7800EF66E5D
:1011D400120EF76E000EF86E00EE1AF010EE08F024
:1011E4000900F5CFEEFFE550E150FAE1236A226AE7
:1011F40024902492000EF86E100EF76E000144EF56
:1012040009F006C008F007C009F004C00AF005C0E0
:101214000BF008C0F6FF09C0F7FF084A092A0AC004
:10122400D9FF0BC0DAFF0A4A0B2A0800F5CFDFFF0B
:10123400DF50D8B41200EDD70E0E046E000E056E0A
:101244000CC006F00DC007F003EC09F00E0E046E9E
:10125400000E056EA0EC08F012008C50100A8C6E83
:1012640083A806D0460ED66E240ED76EF2941200D2
:101274008C0ED66EE70ED76EF29412002446E78CDD
:0E128400FF00020056EC08F0FFD72492110084
:020000040020DA
:08000000FFFFFFFFFFFFFFFF00
:020000040030CA
:0E0000001D03727CF98B91FFFFC0FFE0FF40F3
:00000001FF
